{
  "contractName": "TodoList",
  "abi": [
    {
      "constant": true,
      "inputs": [
        {
          "name": "",
          "type": "uint256"
        }
      ],
      "name": "tasks",
      "outputs": [
        {
          "name": "id",
          "type": "uint256"
        },
        {
          "name": "content",
          "type": "string"
        },
        {
          "name": "completed",
          "type": "bool"
        },
        {
          "name": "status",
          "type": "uint8"
        }
      ],
      "payable": false,
      "stateMutability": "view",
      "type": "function",
      "signature": "0x8d977672"
    },
    {
      "constant": true,
      "inputs": [],
      "name": "taskCount",
      "outputs": [
        {
          "name": "",
          "type": "uint256"
        }
      ],
      "payable": false,
      "stateMutability": "view",
      "type": "function",
      "signature": "0xb6cb58a5"
    },
    {
      "inputs": [],
      "payable": false,
      "stateMutability": "nonpayable",
      "type": "constructor",
      "signature": "constructor"
    },
    {
      "anonymous": false,
      "inputs": [
        {
          "indexed": false,
          "name": "id",
          "type": "uint256"
        },
        {
          "indexed": false,
          "name": "content",
          "type": "string"
        },
        {
          "indexed": false,
          "name": "completed",
          "type": "bool"
        }
      ],
      "name": "TaskCreated",
      "type": "event",
      "signature": "0x05d0fb833127fc08168556d0e7ca9554fc3f6bc843b3b7d2bf1c35aea6bab660"
    },
    {
      "anonymous": false,
      "inputs": [
        {
          "indexed": false,
          "name": "id",
          "type": "uint256"
        },
        {
          "indexed": false,
          "name": "completed",
          "type": "bool"
        }
      ],
      "name": "TaskCompleted",
      "type": "event",
      "signature": "0xe21fa966ca5cd02748c0752352d18c48165e61cb55b4c29cccf924b5a95fcff1"
    },
    {
      "anonymous": false,
      "inputs": [
        {
          "indexed": false,
          "name": "id",
          "type": "uint256"
        },
        {
          "indexed": false,
          "name": "status",
          "type": "uint8"
        }
      ],
      "name": "TaskStatusChanged",
      "type": "event",
      "signature": "0xd76ef80cfb1ce0c70d0cbc0ab1b9f2f298a78f9fca5c841be963ae9a5d721bb4"
    },
    {
      "constant": false,
      "inputs": [
        {
          "name": "_content",
          "type": "string"
        }
      ],
      "name": "createTask",
      "outputs": [],
      "payable": false,
      "stateMutability": "nonpayable",
      "type": "function",
      "signature": "0x111002aa"
    },
    {
      "constant": false,
      "inputs": [
        {
          "name": "_id",
          "type": "uint256"
        }
      ],
      "name": "toggleCompleted",
      "outputs": [],
      "payable": false,
      "stateMutability": "nonpayable",
      "type": "function",
      "signature": "0x455f5024"
    },
    {
      "constant": false,
      "inputs": [
        {
          "name": "_id",
          "type": "uint256"
        },
        {
          "name": "_status",
          "type": "uint8"
        }
      ],
      "name": "changeStatus",
      "outputs": [],
      "payable": false,
      "stateMutability": "nonpayable",
      "type": "function",
      "signature": "0xc5a8a2ab"
    }
  ],
  "bytecode": "0x60806040526000805534801561001457600080fd5b5060408051808201909152600981527f64656d6f207461736b0000000000000000000000000000000000000000000000602082015261005b906401000000006100ec810204565b60408051808201909152601181527f616e6f746865722064656d6f207461736b00000000000000000000000000000060208201526100a1906401000000006100ec810204565b60408051808201909152601181527f7965617420616e6f746865722064656d6f00000000000000000000000000000060208201526100e7906401000000006100ec810204565b6102cd565b600080546001018082556040805160808101825291825260208201849052810182905290606082015260008054815260016020818152604090922083518155838301518051919361014293850192910190610232565b50604082015160028201805460ff1916911515919091178082556060840151919061ff00191661010083600381111561017757fe5b02179055509050507f05d0fb833127fc08168556d0e7ca9554fc3f6bc843b3b7d2bf1c35aea6bab660600054826000604051808481526020018060200183151515158152602001828103825284818151815260200191508051906020019080838360005b838110156101f35781810151838201526020016101db565b50505050905090810190601f1680156102205780820380516001836020036101000a031916815260200191505b5094505050505060405180910390a150565b828054600181600116156101000203166002900490600052602060002090601f016020900481019282601f1061027357805160ff19168380011785556102a0565b828001600101855582156102a0579182015b828111156102a0578251825591602001919060010190610285565b506102ac9291506102b0565b5090565b6102ca91905b808211156102ac57600081556001016102b6565b90565b6108e1806102dc6000396000f3fe60806040526004361061006c5763ffffffff7c0100000000000000000000000000000000000000000000000000000000600035041663111002aa8114610071578063455f5024146101265780638d97767214610150578063b6cb58a514610219578063c5a8a2ab14610240575b600080fd5b34801561007d57600080fd5b506101246004803603602081101561009457600080fd5b8101906020810181356401000000008111156100af57600080fd5b8201836020820111156100c157600080fd5b803590602001918460018302840111640100000000831117156100e357600080fd5b91908080601f016020809104026020016040519081016040528093929190818152602001838380828437600092019190915250929550610273945050505050565b005b34801561013257600080fd5b506101246004803603602081101561014957600080fd5b50356103b9565b34801561015c57600080fd5b5061017a6004803603602081101561017357600080fd5b5035610563565b60405180858152602001806020018415151515815260200183600381111561019e57fe5b60ff168152602001828103825285818151815260200191508051906020019080838360005b838110156101db5781810151838201526020016101c3565b50505050905090810190601f1680156102085780820380516001836020036101000a031916815260200191505b509550505050505060405180910390f35b34801561022557600080fd5b5061022e61061b565b60408051918252519081900360200190f35b34801561024c57600080fd5b506101246004803603604081101561026357600080fd5b508035906020013560ff16610621565b60008054600101808255604080516080810182529182526020820184905281018290529060608201526000805481526001602081815260409092208351815583830151805191936102c9938501929101906107f4565b50604082015160028201805460ff1916911515919091178082556060840151919061ff0019166101008360038111156102fe57fe5b02179055509050507f05d0fb833127fc08168556d0e7ca9554fc3f6bc843b3b7d2bf1c35aea6bab660600054826000604051808481526020018060200183151515158152602001828103825284818151815260200191508051906020019080838360005b8381101561037a578181015183820152602001610362565b50505050905090810190601f1680156103a75780820380516001836020036101000a031916815260200191505b5094505050505060405180910390a150565b6103c1610872565b60008281526001602081815260409283902083516080810185528154815281840180548651600296821615610100026000190190911695909504601f8101859004850286018501909652858552909491938584019390929083018282801561046a5780601f1061043f5761010080835404028352916020019161046a565b820191906000526020600020905b81548152906001019060200180831161044d57829003601f168201915b5050509183525050600282015460ff8082161515602084015260409092019161010090910416600381111561049b57fe5b60038111156104a657fe5b905250604080820180511590526000848152600160208181529290912083518155828401518051949550859491936104e3938501929101906107f4565b50604082015160028201805460ff1916911515919091178082556060840151919061ff00191661010083600381111561051857fe5b021790555050506040808201518151848152901515602082015281517fe21fa966ca5cd02748c0752352d18c48165e61cb55b4c29cccf924b5a95fcff1929181900390910190a15050565b600160208181526000928352604092839020805481840180548651600296821615610100026000190190911695909504601f810185900485028601850190965285855290949193929091908301828280156105ff5780601f106105d4576101008083540402835291602001916105ff565b820191906000526020600020905b8154815290600101906020018083116105e257829003601f168201915b5050506002909301549192505060ff8082169161010090041684565b60005481565b610629610872565b60008381526001602081815260409283902083516080810185528154815281840180548651600296821615610100026000190190911695909504601f810185900485028601850190965285855290949193858401939092908301828280156106d25780601f106106a7576101008083540402835291602001916106d2565b820191906000526020600020905b8154815290600101906020018083116106b557829003601f168201915b5050509183525050600282015460ff8082161515602084015260409092019161010090910416600381111561070357fe5b600381111561070e57fe5b90525090506060810182600381111561072357fe5b9081600381111561073057fe5b90525060008381526001602081815260409092208351815582840151805185949293610761939085019201906107f4565b50604082015160028201805460ff1916911515919091178082556060840151919061ff00191661010083600381111561079657fe5b02179055509050507fd76ef80cfb1ce0c70d0cbc0ab1b9f2f298a78f9fca5c841be963ae9a5d721bb4838260600151604051808381526020018260038111156107db57fe5b60ff1681526020019250505060405180910390a1505050565b828054600181600116156101000203166002900490600052602060002090601f016020900481019282601f1061083557805160ff1916838001178555610862565b82800160010185558215610862579182015b82811115610862578251825591602001919060010190610847565b5061086e929150610898565b5090565b604080516080810182526000808252606060208301819052928201819052909182015290565b6108b291905b8082111561086e576000815560010161089e565b9056fea165627a7a723058200f08466abce04d9ff260312a28054716427e519db0f6edc69c5854676c35cbf30029",
  "source": "pragma solidity ^0.5.0;\r\n\r\ncontract TodoList {\r\n  uint public taskCount = 0;\r\n\r\n  struct Task {\r\n    uint id;\r\n    string content;\r\n    bool completed;\r\n    Status status;\r\n  }\r\n   enum Status {\r\n      todo,\r\n      doing,\r\n      testing,\r\n      done\r\n   }\r\n\r\n\r\n  mapping(uint => Task) public tasks;\r\n\r\n  event TaskCreated(\r\n    uint id,\r\n    string content,\r\n    bool completed\r\n  );\r\n\r\n  event TaskCompleted(\r\n    uint id,\r\n    bool completed\r\n  );\r\n\r\n  event TaskStatusChanged(\r\n    uint id,\r\n    Status status\r\n  );\r\n\r\n  constructor() public {\r\n    createTask(\"demo task\");\r\n    createTask(\"another demo task\");\r\n    createTask(\"yeat another demo\");\r\n  }\r\n\r\n  function createTask(string memory _content) public {\r\n    taskCount ++;\r\n    tasks[taskCount] = Task(taskCount, _content, false, Status.todo);\r\n    emit TaskCreated(taskCount, _content, false);\r\n  }\r\n\r\n  function toggleCompleted(uint _id) public {\r\n    Task memory _task = tasks[_id];\r\n    _task.completed = !_task.completed;\r\n    tasks[_id] = _task;\r\n    emit TaskCompleted(_id, _task.completed);\r\n  }\r\n\r\n  function changeStatus(uint _id, Status _status) public {\r\n    Task memory _task = tasks[_id];\r\n    _task.status = _status;\r\n    tasks[_id] = _task;\r\n    emit TaskStatusChanged(_id, _task.status);\r\n  }\r\n\r\n}\r\n",
  "sourcePath": "C:/Users/Vasile Metei/Desktop/Test_Lab.3/DAA/Laboratory_Work_N3/eth-todo-list/contracts/TodoList.sol",
  "compiler": {
    "name": "solc",
    "version": "0.5.0+commit.1d4f565a.Emscripten.clang"
  },
  "schemaVersion": "3.0.1",
  "updatedAt": "2021-06-09T16:30:04.986Z",
  "devdoc": {
    "methods": {}
  },
  "userdoc": {
    "methods": {}
  }
}